{
  "contractName": "NumaToken",
  "abi": [
    {
      "constant": true,
      "inputs": [],
      "name": "name",
      "outputs": [
        {
          "name": "",
          "type": "string"
        }
      ],
      "payable": false,
      "stateMutability": "view",
      "type": "function",
      "signature": "0x06fdde03"
    },
    {
      "constant": false,
      "inputs": [
        {
          "name": "spender",
          "type": "address"
        },
        {
          "name": "value",
          "type": "uint256"
        }
      ],
      "name": "approve",
      "outputs": [
        {
          "name": "",
          "type": "bool"
        }
      ],
      "payable": false,
      "stateMutability": "nonpayable",
      "type": "function",
      "signature": "0x095ea7b3"
    },
    {
      "constant": true,
      "inputs": [],
      "name": "totalSupply",
      "outputs": [
        {
          "name": "",
          "type": "uint256"
        }
      ],
      "payable": false,
      "stateMutability": "view",
      "type": "function",
      "signature": "0x18160ddd"
    },
    {
      "constant": true,
      "inputs": [
        {
          "name": "",
          "type": "address"
        }
      ],
      "name": "receivedMessage",
      "outputs": [
        {
          "name": "",
          "type": "string"
        }
      ],
      "payable": false,
      "stateMutability": "view",
      "type": "function",
      "signature": "0x1f571e5e"
    },
    {
      "constant": false,
      "inputs": [
        {
          "name": "from",
          "type": "address"
        },
        {
          "name": "to",
          "type": "address"
        },
        {
          "name": "value",
          "type": "uint256"
        }
      ],
      "name": "transferFrom",
      "outputs": [
        {
          "name": "",
          "type": "bool"
        }
      ],
      "payable": false,
      "stateMutability": "nonpayable",
      "type": "function",
      "signature": "0x23b872dd"
    },
    {
      "constant": true,
      "inputs": [],
      "name": "DECIMALS",
      "outputs": [
        {
          "name": "",
          "type": "uint8"
        }
      ],
      "payable": false,
      "stateMutability": "view",
      "type": "function",
      "signature": "0x2e0f2625"
    },
    {
      "constant": true,
      "inputs": [],
      "name": "decimals",
      "outputs": [
        {
          "name": "",
          "type": "uint8"
        }
      ],
      "payable": false,
      "stateMutability": "view",
      "type": "function",
      "signature": "0x313ce567"
    },
    {
      "constant": false,
      "inputs": [
        {
          "name": "spender",
          "type": "address"
        },
        {
          "name": "addedValue",
          "type": "uint256"
        }
      ],
      "name": "increaseAllowance",
      "outputs": [
        {
          "name": "",
          "type": "bool"
        }
      ],
      "payable": false,
      "stateMutability": "nonpayable",
      "type": "function",
      "signature": "0x39509351"
    },
    {
      "constant": true,
      "inputs": [
        {
          "name": "owner",
          "type": "address"
        }
      ],
      "name": "balanceOf",
      "outputs": [
        {
          "name": "",
          "type": "uint256"
        }
      ],
      "payable": false,
      "stateMutability": "view",
      "type": "function",
      "signature": "0x70a08231"
    },
    {
      "constant": false,
      "inputs": [],
      "name": "renounceOwnership",
      "outputs": [],
      "payable": false,
      "stateMutability": "nonpayable",
      "type": "function",
      "signature": "0x715018a6"
    },
    {
      "constant": true,
      "inputs": [
        {
          "name": "",
          "type": "address"
        }
      ],
      "name": "sentMessage",
      "outputs": [
        {
          "name": "",
          "type": "string"
        }
      ],
      "payable": false,
      "stateMutability": "view",
      "type": "function",
      "signature": "0x7a95b333"
    },
    {
      "constant": true,
      "inputs": [],
      "name": "owner",
      "outputs": [
        {
          "name": "",
          "type": "address"
        }
      ],
      "payable": false,
      "stateMutability": "view",
      "type": "function",
      "signature": "0x8da5cb5b"
    },
    {
      "constant": true,
      "inputs": [],
      "name": "isOwner",
      "outputs": [
        {
          "name": "",
          "type": "bool"
        }
      ],
      "payable": false,
      "stateMutability": "view",
      "type": "function",
      "signature": "0x8f32d59b"
    },
    {
      "constant": true,
      "inputs": [],
      "name": "symbol",
      "outputs": [
        {
          "name": "",
          "type": "string"
        }
      ],
      "payable": false,
      "stateMutability": "view",
      "type": "function",
      "signature": "0x95d89b41"
    },
    {
      "constant": false,
      "inputs": [
        {
          "name": "spender",
          "type": "address"
        },
        {
          "name": "subtractedValue",
          "type": "uint256"
        }
      ],
      "name": "decreaseAllowance",
      "outputs": [
        {
          "name": "",
          "type": "bool"
        }
      ],
      "payable": false,
      "stateMutability": "nonpayable",
      "type": "function",
      "signature": "0xa457c2d7"
    },
    {
      "constant": false,
      "inputs": [
        {
          "name": "to",
          "type": "address"
        },
        {
          "name": "value",
          "type": "uint256"
        }
      ],
      "name": "transfer",
      "outputs": [
        {
          "name": "",
          "type": "bool"
        }
      ],
      "payable": false,
      "stateMutability": "nonpayable",
      "type": "function",
      "signature": "0xa9059cbb"
    },
    {
      "constant": true,
      "inputs": [
        {
          "name": "owner",
          "type": "address"
        },
        {
          "name": "spender",
          "type": "address"
        }
      ],
      "name": "allowance",
      "outputs": [
        {
          "name": "",
          "type": "uint256"
        }
      ],
      "payable": false,
      "stateMutability": "view",
      "type": "function",
      "signature": "0xdd62ed3e"
    },
    {
      "constant": false,
      "inputs": [
        {
          "name": "newOwner",
          "type": "address"
        }
      ],
      "name": "transferOwnership",
      "outputs": [],
      "payable": false,
      "stateMutability": "nonpayable",
      "type": "function",
      "signature": "0xf2fde38b"
    },
    {
      "inputs": [],
      "payable": false,
      "stateMutability": "nonpayable",
      "type": "constructor",
      "signature": "constructor"
    },
    {
      "anonymous": false,
      "inputs": [
        {
          "indexed": true,
          "name": "previousOwner",
          "type": "address"
        },
        {
          "indexed": true,
          "name": "newOwner",
          "type": "address"
        }
      ],
      "name": "OwnershipTransferred",
      "type": "event",
      "signature": "0x8be0079c531659141344cd1fd0a4f28419497f9722a3daafe3b4186f6b6457e0"
    },
    {
      "anonymous": false,
      "inputs": [
        {
          "indexed": true,
          "name": "from",
          "type": "address"
        },
        {
          "indexed": true,
          "name": "to",
          "type": "address"
        },
        {
          "indexed": false,
          "name": "value",
          "type": "uint256"
        }
      ],
      "name": "Transfer",
      "type": "event",
      "signature": "0xddf252ad1be2c89b69c2b068fc378daa952ba7f163c4a11628f55a4df523b3ef"
    },
    {
      "anonymous": false,
      "inputs": [
        {
          "indexed": true,
          "name": "owner",
          "type": "address"
        },
        {
          "indexed": true,
          "name": "spender",
          "type": "address"
        },
        {
          "indexed": false,
          "name": "value",
          "type": "uint256"
        }
      ],
      "name": "Approval",
      "type": "event",
      "signature": "0x8c5be1e5ebec7d5bd14f71427d1e84f3dd0314c0f7b2291e5b200ac8c7c3b925"
    },
    {
      "constant": false,
      "inputs": [
        {
          "name": "_mintAmount",
          "type": "uint256"
        }
      ],
      "name": "mint",
      "outputs": [
        {
          "name": "",
          "type": "bool"
        }
      ],
      "payable": false,
      "stateMutability": "nonpayable",
      "type": "function",
      "signature": "0xa0712d68"
    },
    {
      "constant": false,
      "inputs": [
        {
          "name": "_burnAmount",
          "type": "uint256"
        }
      ],
      "name": "burn",
      "outputs": [
        {
          "name": "",
          "type": "bool"
        }
      ],
      "payable": false,
      "stateMutability": "nonpayable",
      "type": "function",
      "signature": "0x42966c68"
    },
    {
      "constant": false,
      "inputs": [
        {
          "name": "_target",
          "type": "address"
        },
        {
          "name": "_value",
          "type": "uint256"
        }
      ],
      "name": "burnTargetPersonAmount",
      "outputs": [
        {
          "name": "",
          "type": "bool"
        }
      ],
      "payable": false,
      "stateMutability": "nonpayable",
      "type": "function",
      "signature": "0xfe4b6944"
    },
    {
      "constant": false,
      "inputs": [
        {
          "name": "_to",
          "type": "address"
        },
        {
          "name": "_value",
          "type": "uint256"
        }
      ],
      "name": "airdrop",
      "outputs": [
        {
          "name": "",
          "type": "bool"
        }
      ],
      "payable": false,
      "stateMutability": "nonpayable",
      "type": "function",
      "signature": "0x8ba4cc3c"
    },
    {
      "constant": false,
      "inputs": [
        {
          "name": "_to",
          "type": "address"
        },
        {
          "name": "_value",
          "type": "uint256"
        },
        {
          "name": "_calldata",
          "type": "string"
        }
      ],
      "name": "sendTokenAndMessage",
      "outputs": [
        {
          "name": "",
          "type": "bool"
        }
      ],
      "payable": false,
      "stateMutability": "nonpayable",
      "type": "function",
      "signature": "0x86b8813c"
    },
    {
      "constant": true,
      "inputs": [
        {
          "name": "_to",
          "type": "address"
        }
      ],
      "name": "fetchReceivedMessage",
      "outputs": [
        {
          "name": "",
          "type": "string"
        }
      ],
      "payable": false,
      "stateMutability": "view",
      "type": "function",
      "signature": "0xfa45f0d0"
    },
    {
      "constant": true,
      "inputs": [
        {
          "name": "_from",
          "type": "address"
        }
      ],
      "name": "fetchSentMessage",
      "outputs": [
        {
          "name": "",
          "type": "string"
        }
      ],
      "payable": false,
      "stateMutability": "view",
      "type": "function",
      "signature": "0x2620e9da"
    }
  ],
  "bytecode": "0x60806040523480156200001157600080fd5b50604080518082018252600981527f4e756d61546f6b656e00000000000000000000000000000000000000000000006020808301918252835180850190945260038085527f4e4d54000000000000000000000000000000000000000000000000000000000091850191909152825192939260129262000091929162000205565b508151620000a790600490602085019062000205565b506005805460ff191660ff929092169190911761010060a860020a0319166101003381029190911791829055604051600160a060020a0391909204169250600091507f8be0079c531659141344cd1fd0a4f28419497f9722a3daafe3b4186f6b6457e0908290a36200012633620186a06401000000006200012c810204565b620002aa565b600160a060020a03821615156200014257600080fd5b6002546200015f908264010000000062000f96620001eb82021704565b600255600160a060020a03821660009081526020819052604090205462000195908264010000000062000f96620001eb82021704565b600160a060020a0383166000818152602081815260408083209490945583518581529351929391927fddf252ad1be2c89b69c2b068fc378daa952ba7f163c4a11628f55a4df523b3ef9281900390910190a35050565b600082820183811015620001fe57600080fd5b9392505050565b828054600181600116156101000203166002900490600052602060002090601f016020900481019282601f106200024857805160ff191683800117855562000278565b8280016001018555821562000278579182015b82811115620002785782518255916020019190600101906200025b565b50620002869291506200028a565b5090565b620002a791905b8082111562000286576000815560010162000291565b90565b61124f80620002ba6000396000f3fe6080604052600436106101485763ffffffff7c010000000000000000000000000000000000000000000000000000000060003504166306fdde03811461014d578063095ea7b3146101d757806318160ddd146102245780631f571e5e1461024b57806323b872dd1461027e5780632620e9da146102c15780632e0f2625146102f4578063313ce5671461031f578063395093511461033457806342966c681461036d57806370a0823114610397578063715018a6146103ca5780637a95b333146103e157806386b8813c146104145780638ba4cc3c146104dc5780638da5cb5b146105155780638f32d59b1461054657806395d89b411461055b578063a0712d6814610570578063a457c2d71461059a578063a9059cbb146105d3578063dd62ed3e1461060c578063f2fde38b14610647578063fa45f0d01461067a578063fe4b6944146106ad575b600080fd5b34801561015957600080fd5b506101626106e6565b6040805160208082528351818301528351919283929083019185019080838360005b8381101561019c578181015183820152602001610184565b50505050905090810190601f1680156101c95780820380516001836020036101000a031916815260200191505b509250505060405180910390f35b3480156101e357600080fd5b50610210600480360360408110156101fa57600080fd5b50600160a060020a03813516906020013561077d565b604080519115158252519081900360200190f35b34801561023057600080fd5b506102396107fb565b60408051918252519081900360200190f35b34801561025757600080fd5b506101626004803603602081101561026e57600080fd5b5035600160a060020a0316610801565b34801561028a57600080fd5b50610210600480360360608110156102a157600080fd5b50600160a060020a0381358116916020810135909116906040013561089c565b3480156102cd57600080fd5b50610162600480360360208110156102e457600080fd5b5035600160a060020a0316610965565b34801561030057600080fd5b50610309610a10565b6040805160ff9092168252519081900360200190f35b34801561032b57600080fd5b50610309610a15565b34801561034057600080fd5b506102106004803603604081101561035757600080fd5b50600160a060020a038135169060200135610a1e565b34801561037957600080fd5b506102106004803603602081101561039057600080fd5b5035610ace565b3480156103a357600080fd5b50610239600480360360208110156103ba57600080fd5b5035600160a060020a0316610af5565b3480156103d657600080fd5b506103df610b10565b005b3480156103ed57600080fd5b506101626004803603602081101561040457600080fd5b5035600160a060020a0316610b80565b34801561042057600080fd5b506102106004803603606081101561043757600080fd5b600160a060020a038235169160208101359181019060608101604082013564010000000081111561046757600080fd5b82018360208201111561047957600080fd5b8035906020019184600183028401116401000000008311171561049b57600080fd5b91908080601f016020809104026020016040519081016040528093929190818152602001838380828437600092019190915250929550610be8945050505050565b3480156104e857600080fd5b50610210600480360360408110156104ff57600080fd5b50600160a060020a038135169060200135610c63565b34801561052157600080fd5b5061052a610ca7565b60408051600160a060020a039092168252519081900360200190f35b34801561055257600080fd5b50610210610cbb565b34801561056757600080fd5b50610162610cd1565b34801561057c57600080fd5b506102106004803603602081101561059357600080fd5b5035610d32565b3480156105a657600080fd5b50610210600480360360408110156105bd57600080fd5b50600160a060020a038135169060200135610d51565b3480156105df57600080fd5b50610210600480360360408110156105f657600080fd5b50600160a060020a038135169060200135610d9c565b34801561061857600080fd5b506102396004803603604081101561062f57600080fd5b50600160a060020a0381358116916020013516610db2565b34801561065357600080fd5b506103df6004803603602081101561066a57600080fd5b5035600160a060020a0316610ddd565b34801561068657600080fd5b506101626004803603602081101561069d57600080fd5b5035600160a060020a0316610dfc565b3480156106b957600080fd5b50610210600480360360408110156106d057600080fd5b50600160a060020a038135169060200135610e70565b60038054604080516020601f60026000196101006001881615020190951694909404938401819004810282018101909252828152606093909290918301828280156107725780601f1061074757610100808354040283529160200191610772565b820191906000526020600020905b81548152906001019060200180831161075557829003601f168201915b505050505090505b90565b6000600160a060020a038316151561079457600080fd5b336000818152600160209081526040808320600160a060020a03881680855290835292819020869055805186815290519293927f8c5be1e5ebec7d5bd14f71427d1e84f3dd0314c0f7b2291e5b200ac8c7c3b925929181900390910190a350600192915050565b60025490565b60076020908152600091825260409182902080548351601f6002600019610100600186161502019093169290920491820184900484028101840190945280845290918301828280156108945780601f1061086957610100808354040283529160200191610894565b820191906000526020600020905b81548152906001019060200180831161087757829003601f168201915b505050505081565b600160a060020a03831660009081526001602090815260408083203384529091528120546108d0908363ffffffff610eb416565b600160a060020a03851660009081526001602090815260408083203384529091529020556108ff848484610ec9565b600160a060020a0384166000818152600160209081526040808320338085529083529281902054815190815290519293927f8c5be1e5ebec7d5bd14f71427d1e84f3dd0314c0f7b2291e5b200ac8c7c3b925929181900390910190a35060019392505050565b600160a060020a03811660009081526008602090815260409182902080548351601f6002600019610100600186161502019093169290920491820184900484028101840190945280845260609392830182828015610a045780601f106109d957610100808354040283529160200191610a04565b820191906000526020600020905b8154815290600101906020018083116109e757829003601f168201915b50505050509050919050565b601281565b60055460ff1690565b6000600160a060020a0383161515610a3557600080fd5b336000908152600160209081526040808320600160a060020a0387168452909152902054610a69908363ffffffff610f9616565b336000818152600160209081526040808320600160a060020a0389168085529083529281902085905580519485525191937f8c5be1e5ebec7d5bd14f71427d1e84f3dd0314c0f7b2291e5b200ac8c7c3b925929081900390910190a350600192915050565b6000610ad8610cbb565b1515610ae357600080fd5b610aed3383610faf565b506001919050565b600160a060020a031660009081526020819052604090205490565b610b18610cbb565b1515610b2357600080fd5b6005546040516000916101009004600160a060020a0316907f8be0079c531659141344cd1fd0a4f28419497f9722a3daafe3b4186f6b6457e0908390a36005805474ffffffffffffffffffffffffffffffffffffffff0019169055565b60086020908152600091825260409182902080548351601f6002600019610100600186161502019093169290920491820184900484028101840190945280845290918301828280156108945780601f1061086957610100808354040283529160200191610894565b336000908152600660205260408120548311610c0357600080fd5b610c0d8484610d9c565b503360009081526008602090815260409091208351610c2e9285019061118b565b50600160a060020a03841660009081526007602090815260409091208351610c589285019061118b565b506001949350505050565b6000610c6d610cbb565b1515610c7857600080fd5b336000908152600660205260409020548211610c9357600080fd5b610c9d8383610d9c565b5060019392505050565b6005546101009004600160a060020a031690565b6005546101009004600160a060020a0316331490565b60048054604080516020601f60026000196101006001881615020190951694909404938401819004810282018101909252828152606093909290918301828280156107725780601f1061074757610100808354040283529160200191610772565b6000610d3c610cbb565b1515610d4757600080fd5b610aed3383611058565b6000600160a060020a0383161515610d6857600080fd5b336000908152600160209081526040808320600160a060020a0387168452909152902054610a69908363ffffffff610eb416565b6000610da9338484610ec9565b50600192915050565b600160a060020a03918216600090815260016020908152604080832093909416825291909152205490565b610de5610cbb565b1515610df057600080fd5b610df981611102565b50565b600160a060020a03811660009081526007602090815260409182902080548351601f6002600019610100600186161502019093169290920491820184900484028101840190945280845260609392830182828015610a045780601f106109d957610100808354040283529160200191610a04565b6000610e7a610cbb565b1515610e8557600080fd5b600160a060020a038316600090815260066020526040902054821115610eaa57600080fd5b610da98383610faf565b600082821115610ec357600080fd5b50900390565b600160a060020a0382161515610ede57600080fd5b600160a060020a038316600090815260208190526040902054610f07908263ffffffff610eb416565b600160a060020a038085166000908152602081905260408082209390935590841681522054610f3c908263ffffffff610f9616565b600160a060020a038084166000818152602081815260409182902094909455805185815290519193928716927fddf252ad1be2c89b69c2b068fc378daa952ba7f163c4a11628f55a4df523b3ef92918290030190a3505050565b600082820183811015610fa857600080fd5b9392505050565b600160a060020a0382161515610fc457600080fd5b600254610fd7908263ffffffff610eb416565b600255600160a060020a038216600090815260208190526040902054611003908263ffffffff610eb416565b600160a060020a038316600081815260208181526040808320949094558351858152935191937fddf252ad1be2c89b69c2b068fc378daa952ba7f163c4a11628f55a4df523b3ef929081900390910190a35050565b600160a060020a038216151561106d57600080fd5b600254611080908263ffffffff610f9616565b600255600160a060020a0382166000908152602081905260409020546110ac908263ffffffff610f9616565b600160a060020a0383166000818152602081815260408083209490945583518581529351929391927fddf252ad1be2c89b69c2b068fc378daa952ba7f163c4a11628f55a4df523b3ef9281900390910190a35050565b600160a060020a038116151561111757600080fd5b600554604051600160a060020a0380841692610100900416907f8be0079c531659141344cd1fd0a4f28419497f9722a3daafe3b4186f6b6457e090600090a360058054600160a060020a039092166101000274ffffffffffffffffffffffffffffffffffffffff0019909216919091179055565b828054600181600116156101000203166002900490600052602060002090601f016020900481019282601f106111cc57805160ff19168380011785556111f9565b828001600101855582156111f9579182015b828111156111f95782518255916020019190600101906111de565b50611205929150611209565b5090565b61077a91905b80821115611205576000815560010161120f56fea165627a7a7230582029297d4c3c63c534b577504bf65c428b105e2b287d358d508de7a52d3cee2f670029",
  "source": "pragma solidity ^0.5.0;\n\n// When using with defined interface...\n//import \"./INumaToken.sol\";\n//import \"./Owned.sol\";\n\n// When using with open zeppelin only...\nimport \"openzeppelin-solidity/contracts/token/ERC20/ERC20.sol\";\nimport \"openzeppelin-solidity/contracts/token/ERC20/ERC20Detailed.sol\";\nimport \"openzeppelin-solidity/contracts/math/SafeMath.sol\";\nimport \"openzeppelin-solidity/contracts/ownership/Ownable.sol\";\n\n/**\n*\n* @title Numa token\n*\n* @dev This is implementation with interface INumatoken and ERC20 implementation.\n* @dev TODO:1.Add commnent in japanese. 2.Implemantation of unit Test. 3.Refactor.\n*/\n\ncontract NumaToken is ERC20, ERC20Detailed, Ownable {\n\tusing SafeMath for uint8;\n\tusing SafeMath for uint256;\n\n\tuint8 public constant DECIMALS = 18;\n\tuint256 private constant INITIAL_SUPPLY = 100000;\n\n\tmapping(address => uint) balances;\n\tmapping(address => string) public  receivedMessage;\n\tmapping(address => string) public  sentMessage;\n\n\tconstructor () public ERC20Detailed(\"NumaToken\", \"NMT\", DECIMALS){\n         _mint(msg.sender, INITIAL_SUPPLY);\n\t}\n\t\n\tfunction mint(uint256 _mintAmount) public onlyOwner returns (bool) {\n\t\t_mint(msg.sender, _mintAmount);\n\t\treturn true;\n\t}\n\n\tfunction burn(uint256 _burnAmount) public onlyOwner returns (bool) {\n\t\t_burn(msg.sender, _burnAmount);\n\t\treturn true;\n\t}\n\n\tfunction burnTargetPersonAmount(address _target, uint256 _value) public onlyOwner returns (bool){\n\t\trequire(balances[_target] >= _value);\n\t\t_burn(_target, _value);\n\t\treturn true;\n\t}\n\n    function airdrop(address _to, uint256 _value) public onlyOwner returns (bool) {\n    \trequire(balances[msg.sender] < _value);\n    \ttransfer(_to, _value);\n    \treturn true;\n    }\n\n\tfunction sendTokenAndMessage(address _to, uint256 _value, string memory _calldata) public returns (bool) {\n\t\trequire(balances[msg.sender] < _value);\n\t\ttransfer(_to, _value);\n\t\tsentMessage[msg.sender] = _calldata;\n\t\treceivedMessage[_to] = _calldata;\n\t\treturn true;\n\t}\n\n\tfunction fetchReceivedMessage(address _to) public view returns (string memory) {\n\t\treturn receivedMessage[_to];\n\t}\n\n\tfunction fetchSentMessage(address _from) public view returns (string memory) {\n\t\treturn sentMessage[_from];\t\n\t}\n\t\n}",
  "sourcePath": "/Users/shunmanabe/Desktop/code_pallet/dapps/erc_token/Numa_token/contracts/NumaToken.sol",
  "compiler": {
    "name": "solc",
    "version": "0.5.0+commit.1d4f565a.Emscripten.clang"
  },
  "schemaVersion": "3.0.2",
  "updatedAt": "2019-03-01T16:09:58.469Z",
  "devdoc": {
    "details": "This is implementation with interface INumatoken and ERC20 implementation.TODO:1.Add commnent in japanese. 2.Implemantation of unit Test. 3.Refactor.",
    "methods": {
      "allowance(address,address)": {
        "details": "Function to check the amount of tokens that an owner allowed to a spender.",
        "params": {
          "owner": "address The address which owns the funds.",
          "spender": "address The address which will spend the funds."
        },
        "return": "A uint256 specifying the amount of tokens still available for the spender."
      },
      "approve(address,uint256)": {
        "details": "Approve the passed address to spend the specified amount of tokens on behalf of msg.sender. Beware that changing an allowance with this method brings the risk that someone may use both the old and the new allowance by unfortunate transaction ordering. One possible solution to mitigate this race condition is to first reduce the spender's allowance to 0 and set the desired value afterwards: https://github.com/ethereum/EIPs/issues/20#issuecomment-263524729",
        "params": {
          "spender": "The address which will spend the funds.",
          "value": "The amount of tokens to be spent."
        }
      },
      "balanceOf(address)": {
        "params": {
          "owner": "The address to query the balance of."
        },
        "return": "An uint256 representing the amount owned by the passed address."
      },
      "decimals()": {
        "return": "the number of decimals of the token."
      },
      "decreaseAllowance(address,uint256)": {
        "details": "Decrease the amount of tokens that an owner allowed to a spender. approve should be called when allowed_[_spender] == 0. To decrement allowed value is better to use this function to avoid 2 calls (and wait until the first transaction is mined) From MonolithDAO Token.sol Emits an Approval event.",
        "params": {
          "spender": "The address which will spend the funds.",
          "subtractedValue": "The amount of tokens to decrease the allowance by."
        }
      },
      "increaseAllowance(address,uint256)": {
        "details": "Increase the amount of tokens that an owner allowed to a spender. approve should be called when allowed_[_spender] == 0. To increment allowed value is better to use this function to avoid 2 calls (and wait until the first transaction is mined) From MonolithDAO Token.sol Emits an Approval event.",
        "params": {
          "addedValue": "The amount of tokens to increase the allowance by.",
          "spender": "The address which will spend the funds."
        }
      },
      "isOwner()": {
        "return": "true if `msg.sender` is the owner of the contract."
      },
      "name()": {
        "return": "the name of the token."
      },
      "owner()": {
        "return": "the address of the owner."
      },
      "renounceOwnership()": {
        "details": "Allows the current owner to relinquish control of the contract."
      },
      "symbol()": {
        "return": "the symbol of the token."
      },
      "totalSupply()": {
        "details": "Total number of tokens in existence"
      },
      "transfer(address,uint256)": {
        "details": "Transfer token for a specified address",
        "params": {
          "to": "The address to transfer to.",
          "value": "The amount to be transferred."
        }
      },
      "transferFrom(address,address,uint256)": {
        "details": "Transfer tokens from one address to another. Note that while this function emits an Approval event, this is not required as per the specification, and other compliant implementations may not emit the event.",
        "params": {
          "from": "address The address which you want to send tokens from",
          "to": "address The address which you want to transfer to",
          "value": "uint256 the amount of tokens to be transferred"
        }
      },
      "transferOwnership(address)": {
        "details": "Allows the current owner to transfer control of the contract to a newOwner.",
        "params": {
          "newOwner": "The address to transfer ownership to."
        }
      }
    },
    "title": "Numa token"
  },
  "userdoc": {
    "methods": {
      "renounceOwnership()": {
        "notice": "Renouncing to ownership will leave the contract without an owner. It will not be possible to call the functions with the `onlyOwner` modifier anymore."
      }
    }
  }
}