{
  "contractName": "NumaToken",
  "abi": [
    {
      "constant": true,
      "inputs": [],
      "name": "name",
      "outputs": [
        {
          "name": "",
          "type": "string"
        }
      ],
      "payable": false,
      "stateMutability": "view",
      "type": "function",
      "signature": "0x06fdde03"
    },
    {
      "constant": false,
      "inputs": [
        {
          "name": "spender",
          "type": "address"
        },
        {
          "name": "value",
          "type": "uint256"
        }
      ],
      "name": "approve",
      "outputs": [
        {
          "name": "",
          "type": "bool"
        }
      ],
      "payable": false,
      "stateMutability": "nonpayable",
      "type": "function",
      "signature": "0x095ea7b3"
    },
    {
      "constant": true,
      "inputs": [],
      "name": "totalSupply",
      "outputs": [
        {
          "name": "",
          "type": "uint256"
        }
      ],
      "payable": false,
      "stateMutability": "view",
      "type": "function",
      "signature": "0x18160ddd"
    },
    {
      "constant": true,
      "inputs": [
        {
          "name": "",
          "type": "address"
        }
      ],
      "name": "receivedMessage",
      "outputs": [
        {
          "name": "",
          "type": "string"
        }
      ],
      "payable": false,
      "stateMutability": "view",
      "type": "function",
      "signature": "0x1f571e5e"
    },
    {
      "constant": false,
      "inputs": [
        {
          "name": "from",
          "type": "address"
        },
        {
          "name": "to",
          "type": "address"
        },
        {
          "name": "value",
          "type": "uint256"
        }
      ],
      "name": "transferFrom",
      "outputs": [
        {
          "name": "",
          "type": "bool"
        }
      ],
      "payable": false,
      "stateMutability": "nonpayable",
      "type": "function",
      "signature": "0x23b872dd"
    },
    {
      "constant": true,
      "inputs": [],
      "name": "decimals",
      "outputs": [
        {
          "name": "",
          "type": "uint8"
        }
      ],
      "payable": false,
      "stateMutability": "view",
      "type": "function",
      "signature": "0x313ce567"
    },
    {
      "constant": false,
      "inputs": [
        {
          "name": "spender",
          "type": "address"
        },
        {
          "name": "addedValue",
          "type": "uint256"
        }
      ],
      "name": "increaseAllowance",
      "outputs": [
        {
          "name": "",
          "type": "bool"
        }
      ],
      "payable": false,
      "stateMutability": "nonpayable",
      "type": "function",
      "signature": "0x39509351"
    },
    {
      "constant": true,
      "inputs": [
        {
          "name": "owner",
          "type": "address"
        }
      ],
      "name": "balanceOf",
      "outputs": [
        {
          "name": "",
          "type": "uint256"
        }
      ],
      "payable": false,
      "stateMutability": "view",
      "type": "function",
      "signature": "0x70a08231"
    },
    {
      "constant": false,
      "inputs": [],
      "name": "renounceOwnership",
      "outputs": [],
      "payable": false,
      "stateMutability": "nonpayable",
      "type": "function",
      "signature": "0x715018a6"
    },
    {
      "constant": true,
      "inputs": [
        {
          "name": "",
          "type": "address"
        }
      ],
      "name": "sentMessage",
      "outputs": [
        {
          "name": "",
          "type": "string"
        }
      ],
      "payable": false,
      "stateMutability": "view",
      "type": "function",
      "signature": "0x7a95b333"
    },
    {
      "constant": true,
      "inputs": [],
      "name": "owner",
      "outputs": [
        {
          "name": "",
          "type": "address"
        }
      ],
      "payable": false,
      "stateMutability": "view",
      "type": "function",
      "signature": "0x8da5cb5b"
    },
    {
      "constant": true,
      "inputs": [],
      "name": "isOwner",
      "outputs": [
        {
          "name": "",
          "type": "bool"
        }
      ],
      "payable": false,
      "stateMutability": "view",
      "type": "function",
      "signature": "0x8f32d59b"
    },
    {
      "constant": true,
      "inputs": [],
      "name": "symbol",
      "outputs": [
        {
          "name": "",
          "type": "string"
        }
      ],
      "payable": false,
      "stateMutability": "view",
      "type": "function",
      "signature": "0x95d89b41"
    },
    {
      "constant": false,
      "inputs": [
        {
          "name": "spender",
          "type": "address"
        },
        {
          "name": "subtractedValue",
          "type": "uint256"
        }
      ],
      "name": "decreaseAllowance",
      "outputs": [
        {
          "name": "",
          "type": "bool"
        }
      ],
      "payable": false,
      "stateMutability": "nonpayable",
      "type": "function",
      "signature": "0xa457c2d7"
    },
    {
      "constant": false,
      "inputs": [
        {
          "name": "to",
          "type": "address"
        },
        {
          "name": "value",
          "type": "uint256"
        }
      ],
      "name": "transfer",
      "outputs": [
        {
          "name": "",
          "type": "bool"
        }
      ],
      "payable": false,
      "stateMutability": "nonpayable",
      "type": "function",
      "signature": "0xa9059cbb"
    },
    {
      "constant": true,
      "inputs": [
        {
          "name": "owner",
          "type": "address"
        },
        {
          "name": "spender",
          "type": "address"
        }
      ],
      "name": "allowance",
      "outputs": [
        {
          "name": "",
          "type": "uint256"
        }
      ],
      "payable": false,
      "stateMutability": "view",
      "type": "function",
      "signature": "0xdd62ed3e"
    },
    {
      "constant": false,
      "inputs": [
        {
          "name": "newOwner",
          "type": "address"
        }
      ],
      "name": "transferOwnership",
      "outputs": [],
      "payable": false,
      "stateMutability": "nonpayable",
      "type": "function",
      "signature": "0xf2fde38b"
    },
    {
      "inputs": [],
      "payable": false,
      "stateMutability": "nonpayable",
      "type": "constructor",
      "signature": "constructor"
    },
    {
      "anonymous": false,
      "inputs": [
        {
          "indexed": true,
          "name": "previousOwner",
          "type": "address"
        },
        {
          "indexed": true,
          "name": "newOwner",
          "type": "address"
        }
      ],
      "name": "OwnershipTransferred",
      "type": "event",
      "signature": "0x8be0079c531659141344cd1fd0a4f28419497f9722a3daafe3b4186f6b6457e0"
    },
    {
      "anonymous": false,
      "inputs": [
        {
          "indexed": true,
          "name": "from",
          "type": "address"
        },
        {
          "indexed": true,
          "name": "to",
          "type": "address"
        },
        {
          "indexed": false,
          "name": "value",
          "type": "uint256"
        }
      ],
      "name": "Transfer",
      "type": "event",
      "signature": "0xddf252ad1be2c89b69c2b068fc378daa952ba7f163c4a11628f55a4df523b3ef"
    },
    {
      "anonymous": false,
      "inputs": [
        {
          "indexed": true,
          "name": "owner",
          "type": "address"
        },
        {
          "indexed": true,
          "name": "spender",
          "type": "address"
        },
        {
          "indexed": false,
          "name": "value",
          "type": "uint256"
        }
      ],
      "name": "Approval",
      "type": "event",
      "signature": "0x8c5be1e5ebec7d5bd14f71427d1e84f3dd0314c0f7b2291e5b200ac8c7c3b925"
    },
    {
      "constant": true,
      "inputs": [],
      "name": "getOwner",
      "outputs": [
        {
          "name": "",
          "type": "address"
        }
      ],
      "payable": false,
      "stateMutability": "view",
      "type": "function",
      "signature": "0x893d20e8"
    },
    {
      "constant": false,
      "inputs": [],
      "name": "kill",
      "outputs": [
        {
          "name": "",
          "type": "bool"
        }
      ],
      "payable": false,
      "stateMutability": "nonpayable",
      "type": "function",
      "signature": "0x41c0e1b5"
    },
    {
      "constant": false,
      "inputs": [
        {
          "name": "_to",
          "type": "address"
        },
        {
          "name": "_value",
          "type": "uint256"
        }
      ],
      "name": "airdrop",
      "outputs": [
        {
          "name": "",
          "type": "bool"
        }
      ],
      "payable": false,
      "stateMutability": "nonpayable",
      "type": "function",
      "signature": "0x8ba4cc3c"
    },
    {
      "constant": false,
      "inputs": [
        {
          "name": "_burnAmount",
          "type": "uint256"
        }
      ],
      "name": "burn",
      "outputs": [
        {
          "name": "",
          "type": "bool"
        }
      ],
      "payable": false,
      "stateMutability": "nonpayable",
      "type": "function",
      "signature": "0x42966c68"
    },
    {
      "constant": false,
      "inputs": [
        {
          "name": "_target",
          "type": "address"
        },
        {
          "name": "_value",
          "type": "uint256"
        }
      ],
      "name": "burnTargetUserAmount",
      "outputs": [
        {
          "name": "",
          "type": "bool"
        }
      ],
      "payable": false,
      "stateMutability": "nonpayable",
      "type": "function",
      "signature": "0x2afbeb9d"
    },
    {
      "constant": false,
      "inputs": [
        {
          "name": "_value",
          "type": "uint256"
        }
      ],
      "name": "sendTokenToOwner",
      "outputs": [
        {
          "name": "",
          "type": "bool"
        }
      ],
      "payable": false,
      "stateMutability": "nonpayable",
      "type": "function",
      "signature": "0x1e992f2e"
    },
    {
      "constant": false,
      "inputs": [
        {
          "name": "_to",
          "type": "address"
        },
        {
          "name": "_value",
          "type": "uint256"
        },
        {
          "name": "_calldata",
          "type": "string"
        }
      ],
      "name": "sendTokenAndMessage",
      "outputs": [
        {
          "name": "",
          "type": "bool"
        }
      ],
      "payable": false,
      "stateMutability": "nonpayable",
      "type": "function",
      "signature": "0x86b8813c"
    },
    {
      "constant": true,
      "inputs": [
        {
          "name": "_to",
          "type": "address"
        }
      ],
      "name": "fetchReceivedMessage",
      "outputs": [
        {
          "name": "",
          "type": "string"
        }
      ],
      "payable": false,
      "stateMutability": "view",
      "type": "function",
      "signature": "0xfa45f0d0"
    },
    {
      "constant": true,
      "inputs": [
        {
          "name": "_from",
          "type": "address"
        }
      ],
      "name": "fetchSentMessage",
      "outputs": [
        {
          "name": "",
          "type": "string"
        }
      ],
      "payable": false,
      "stateMutability": "view",
      "type": "function",
      "signature": "0x2620e9da"
    }
  ],
  "bytecode": "0x60806040523480156200001157600080fd5b50604080518082018252600981527f4e756d61546f6b656e00000000000000000000000000000000000000000000006020808301918252835180850190945260038085527f4e4d54000000000000000000000000000000000000000000000000000000000091850191909152825192939260129262000091929162000269565b508151620000a790600490602085019062000269565b506005805460ff191660ff929092169190911761010060a860020a0319166101003381029190911791829055604051600160a060020a0391909204169250600091507f8be0079c531659141344cd1fd0a4f28419497f9722a3daafe3b4186f6b6457e0908290a36200012633620186a064010000000062000190810204565b60068054600160a060020a031916331790819055600160a060020a03166000908152600860205260409020546200016f90620186a0640100000000620011b36200024f82021704565b600654600160a060020a03166000908152600860205260409020556200030e565b600160a060020a0382161515620001a657600080fd5b600254620001c39082640100000000620011b36200024f82021704565b600255600160a060020a038216600090815260208190526040902054620001f99082640100000000620011b36200024f82021704565b600160a060020a0383166000818152602081815260408083209490945583518581529351929391927fddf252ad1be2c89b69c2b068fc378daa952ba7f163c4a11628f55a4df523b3ef9281900390910190a35050565b6000828201838110156200026257600080fd5b9392505050565b828054600181600116156101000203166002900490600052602060002090601f016020900481019282601f10620002ac57805160ff1916838001178555620002dc565b82800160010185558215620002dc579182015b82811115620002dc578251825591602001919060010190620002bf565b50620002ea929150620002ee565b5090565b6200030b91905b80821115620002ea5760008155600101620002f5565b90565b611319806200031e6000396000f3fe6080604052600436106101535763ffffffff7c010000000000000000000000000000000000000000000000000000000060003504166306fdde038114610158578063095ea7b3146101e257806318160ddd1461022f5780631e992f2e146102565780631f571e5e1461028057806323b872dd146102b35780632620e9da146102f65780632afbeb9d14610329578063313ce56714610362578063395093511461038d57806341c0e1b5146103c657806342966c68146103db57806370a0823114610405578063715018a6146104385780637a95b3331461044f57806386b8813c14610482578063893d20e81461054a5780638ba4cc3c1461057b5780638da5cb5b146105b45780638f32d59b146105c957806395d89b41146105de578063a457c2d7146105f3578063a9059cbb1461062c578063dd62ed3e14610665578063f2fde38b146106a0578063fa45f0d0146106d3575b600080fd5b34801561016457600080fd5b5061016d610706565b6040805160208082528351818301528351919283929083019185019080838360005b838110156101a757818101518382015260200161018f565b50505050905090810190601f1680156101d45780820380516001836020036101000a031916815260200191505b509250505060405180910390f35b3480156101ee57600080fd5b5061021b6004803603604081101561020557600080fd5b50600160a060020a03813516906020013561079d565b604080519115158252519081900360200190f35b34801561023b57600080fd5b5061024461081b565b60408051918252519081900360200190f35b34801561026257600080fd5b5061021b6004803603602081101561027957600080fd5b5035610821565b34801561028c57600080fd5b5061016d600480360360208110156102a357600080fd5b5035600160a060020a0316610894565b3480156102bf57600080fd5b5061021b600480360360608110156102d657600080fd5b50600160a060020a0381358116916020810135909116906040013561092f565b34801561030257600080fd5b5061016d6004803603602081101561031957600080fd5b5035600160a060020a03166109f8565b34801561033557600080fd5b5061021b6004803603604081101561034c57600080fd5b50600160a060020a038135169060200135610aa3565b34801561036e57600080fd5b50610377610b0e565b6040805160ff9092168252519081900360200190f35b34801561039957600080fd5b5061021b600480360360408110156103b057600080fd5b50600160a060020a038135169060200135610b17565b3480156103d257600080fd5b5061021b610bc7565b3480156103e757600080fd5b5061021b600480360360208110156103fe57600080fd5b5035610bdf565b34801561041157600080fd5b506102446004803603602081101561042857600080fd5b5035600160a060020a0316610c06565b34801561044457600080fd5b5061044d610c21565b005b34801561045b57600080fd5b5061016d6004803603602081101561047257600080fd5b5035600160a060020a0316610c91565b34801561048e57600080fd5b5061021b600480360360608110156104a557600080fd5b600160a060020a03823516916020810135918101906060810160408201356401000000008111156104d557600080fd5b8201836020820111156104e757600080fd5b8035906020019184600183028401116401000000008311171561050957600080fd5b91908080601f016020809104026020016040519081016040528093929190818152602001838380828437600092019190915250929550610cf9945050505050565b34801561055657600080fd5b5061055f610da5565b60408051600160a060020a039092168252519081900360200190f35b34801561058757600080fd5b5061021b6004803603604081101561059e57600080fd5b50600160a060020a038135169060200135610db4565b3480156105c057600080fd5b5061055f610e7e565b3480156105d557600080fd5b5061021b610e92565b3480156105ea57600080fd5b5061016d610ea8565b3480156105ff57600080fd5b5061021b6004803603604081101561061657600080fd5b50600160a060020a038135169060200135610f09565b34801561063857600080fd5b5061021b6004803603604081101561064f57600080fd5b50600160a060020a038135169060200135610f54565b34801561067157600080fd5b506102446004803603604081101561068857600080fd5b50600160a060020a0381358116916020013516610f6a565b3480156106ac57600080fd5b5061044d600480360360208110156106c357600080fd5b5035600160a060020a0316610f95565b3480156106df57600080fd5b5061016d600480360360208110156106f657600080fd5b5035600160a060020a0316610fb4565b60038054604080516020601f60026000196101006001881615020190951694909404938401819004810282018101909252828152606093909290918301828280156107925780601f1061076757610100808354040283529160200191610792565b820191906000526020600020905b81548152906001019060200180831161077557829003601f168201915b505050505090505b90565b6000600160a060020a03831615156107b457600080fd5b336000818152600160209081526040808320600160a060020a03881680855290835292819020869055805186815290519293927f8c5be1e5ebec7d5bd14f71427d1e84f3dd0314c0f7b2291e5b200ac8c7c3b925929181900390910190a350600192915050565b60025490565b33600090815260086020526040812054821061083c57600080fd5b33600090815260086020526040902080548390039055600654829061086a90600160a060020a031682610f54565b5050600654600160a060020a03166000908152600860205260409020805483019055506001919050565b60096020908152600091825260409182902080548351601f6002600019610100600186161502019093169290920491820184900484028101840190945280845290918301828280156109275780601f106108fc57610100808354040283529160200191610927565b820191906000526020600020905b81548152906001019060200180831161090a57829003601f168201915b505050505081565b600160a060020a0383166000908152600160209081526040808320338452909152812054610963908363ffffffff61102816565b600160a060020a038516600090815260016020908152604080832033845290915290205561099284848461103d565b600160a060020a0384166000818152600160209081526040808320338085529083529281902054815190815290519293927f8c5be1e5ebec7d5bd14f71427d1e84f3dd0314c0f7b2291e5b200ac8c7c3b925929181900390910190a35060019392505050565b600160a060020a0381166000908152600a602090815260409182902080548351601f6002600019610100600186161502019093169290920491820184900484028101840190945280845260609392830182828015610a975780601f10610a6c57610100808354040283529160200191610a97565b820191906000526020600020905b815481529060010190602001808311610a7a57829003601f168201915b50505050509050919050565b6000610aad610e92565b1515610ab857600080fd5b600160a060020a0383166000908152600860205260409020548210610adc57600080fd5b610ae6838361110a565b50600160a060020a038216600090815260086020526040902080548290039055600192915050565b60055460ff1690565b6000600160a060020a0383161515610b2e57600080fd5b336000908152600160209081526040808320600160a060020a0387168452909152902054610b62908363ffffffff6111b316565b336000818152600160209081526040808320600160a060020a0389168085529083529281902085905580519485525191937f8c5be1e5ebec7d5bd14f71427d1e84f3dd0314c0f7b2291e5b200ac8c7c3b925929081900390910190a350600192915050565b6000610bd1610e92565b1515610bdc57600080fd5b33ff5b6000610be9610e92565b1515610bf457600080fd5b610bfe338361110a565b506001919050565b600160a060020a031660009081526020819052604090205490565b610c29610e92565b1515610c3457600080fd5b6005546040516000916101009004600160a060020a0316907f8be0079c531659141344cd1fd0a4f28419497f9722a3daafe3b4186f6b6457e0908390a36005805474ffffffffffffffffffffffffffffffffffffffff0019169055565b600a6020908152600091825260409182902080548351601f6002600019610100600186161502019093169290920491820184900484028101840190945280845290918301828280156109275780601f106108fc57610100808354040283529160200191610927565b336000908152600860205260408120548310610d1457600080fd5b3360009081526008602052604090208054849003905582610d358582610f54565b50600160a060020a0385166000908152600860209081526040808320805488019055338352600a82529091208451610d6f92860190611255565b50600160a060020a03851660009081526009602090815260409091208451610d9992860190611255565b50600195945050505050565b600654600160a060020a031690565b6000610dbe610e92565b1515610dc957600080fd5b336000908152600860205260409020548210610de457600080fd5b3360009081526008602052604090208054839003905581610e058482610f54565b505050600160a060020a03821660008181526008602052604081208054840190556007805460018181018355919092527fa66cc928b5edb82af9bd49922954155ab7b0942694bea4ce44661d9a8736c688909101805473ffffffffffffffffffffffffffffffffffffffff191690921790915592915050565b6005546101009004600160a060020a031690565b6005546101009004600160a060020a0316331490565b60048054604080516020601f60026000196101006001881615020190951694909404938401819004810282018101909252828152606093909290918301828280156107925780601f1061076757610100808354040283529160200191610792565b6000600160a060020a0383161515610f2057600080fd5b336000908152600160209081526040808320600160a060020a0387168452909152902054610b62908363ffffffff61102816565b6000610f6133848461103d565b50600192915050565b600160a060020a03918216600090815260016020908152604080832093909416825291909152205490565b610f9d610e92565b1515610fa857600080fd5b610fb1816111cc565b50565b600160a060020a03811660009081526009602090815260409182902080548351601f6002600019610100600186161502019093169290920491820184900484028101840190945280845260609392830182828015610a975780601f10610a6c57610100808354040283529160200191610a97565b60008282111561103757600080fd5b50900390565b600160a060020a038216151561105257600080fd5b600160a060020a03831660009081526020819052604090205461107b908263ffffffff61102816565b600160a060020a0380851660009081526020819052604080822093909355908416815220546110b0908263ffffffff6111b316565b600160a060020a038084166000818152602081815260409182902094909455805185815290519193928716927fddf252ad1be2c89b69c2b068fc378daa952ba7f163c4a11628f55a4df523b3ef92918290030190a3505050565b600160a060020a038216151561111f57600080fd5b600254611132908263ffffffff61102816565b600255600160a060020a03821660009081526020819052604090205461115e908263ffffffff61102816565b600160a060020a038316600081815260208181526040808320949094558351858152935191937fddf252ad1be2c89b69c2b068fc378daa952ba7f163c4a11628f55a4df523b3ef929081900390910190a35050565b6000828201838110156111c557600080fd5b9392505050565b600160a060020a03811615156111e157600080fd5b600554604051600160a060020a0380841692610100900416907f8be0079c531659141344cd1fd0a4f28419497f9722a3daafe3b4186f6b6457e090600090a360058054600160a060020a039092166101000274ffffffffffffffffffffffffffffffffffffffff0019909216919091179055565b828054600181600116156101000203166002900490600052602060002090601f016020900481019282601f1061129657805160ff19168380011785556112c3565b828001600101855582156112c3579182015b828111156112c35782518255916020019190600101906112a8565b506112cf9291506112d3565b5090565b61079a91905b808211156112cf57600081556001016112d956fea165627a7a723058206d9473beb9e97235fee9a4c723396034cb36efab04cbbb04b3ff6c3fdd0f90380029",
  "source": "pragma solidity ^0.5.0;\n\n// When using with defined interface...\n//import \"./INumaToken.sol\";\n//import \"./Owned.sol\";\n\n// When using with open zeppelin only...\n// See node_modules/openzeppelin-solidity/~\nimport \"openzeppelin-solidity/contracts/token/ERC20/ERC20.sol\";\nimport \"openzeppelin-solidity/contracts/token/ERC20/ERC20Detailed.sol\";\nimport \"openzeppelin-solidity/contracts/math/SafeMath.sol\";\nimport \"openzeppelin-solidity/contracts/ownership/Ownable.sol\";\n\n/**\n* @title Numa token\n* @author shunMB\n* @notice オーナーによるエアドロップ、バーン、指定したユーザーのバーン、ユーザー間の送金&メッセージ送信処理\n* @dev IERC20をインターフェースに持つERC20をベースとしたNumaトークンの実装\n* @dev TODO: リファクタリング\n*/\n\ncontract NumaToken is ERC20, ERC20Detailed, Ownable {\n\tusing SafeMath for uint8;\n\tusing SafeMath for uint256;\n\n\tuint8 private constant DECIMALS = 18;\n\tuint256 private constant INITIAL_SUPPLY = 100000;\n\n\taddress private owner_;\n\taddress[] usersAddresses;\n\n\tmapping(address => uint256) balances;\n\tmapping(address => string) public receivedMessage;\n\tmapping(address => string) public sentMessage;\n\n\tconstructor () public ERC20Detailed(\"NumaToken\", \"NMT\", DECIMALS){\n\t\t/**\n\t\t* @title constructor\n\t\t* @notice ERC20Detailedを用いたインスタンスの初期化とそれに伴うオーナーへのミント。\n\t\t*         また、ownerにデプロイしたアドレスを割り当てる。\n\t\t* @param \"NumaToken\": トークンの名前\n\t\t* @param \"NMT\": 銘柄コード\n\t\t* @param DECIMALS: トークンが小数点以下何桁で割れるかの情報\n\t\t*/\n\t\t_mint(msg.sender, INITIAL_SUPPLY);\n\t\towner_ = msg.sender;\n\t\tbalances[owner_] = balances[owner_].add(INITIAL_SUPPLY);\n\t}\n\n\tfunction getOwner() public view returns (address) {\n\t\t/**\n\t\t* @title getOwner\n\t\t* @notice オーナーのアドレスを取得\n\t\t* @return owner_ address: オーナーのアドレス値\n\t\t*/\t\n        return owner_;\n    }\t\n\n    function kill() public onlyOwner returns (bool) {\n    \t/**\n    \t* @title kill\n    \t* @notice コントラクトをkillする\n    \t* @return bool: 関数の実行成功フラグ\n    \t*/\n\t\tselfdestruct(msg.sender);    \t\n    \treturn true;\n    }\n\n\tfunction airdrop(address _to, uint256 _value) public onlyOwner returns (bool) {\n\t\t/**\n\t\t* @title airdrop\n\t\t* @notice ユーザーへの任意の額のトークン配布\n\t\t* @param address _to: 配布するユーザーのアカウントアドレス\n\t\t* @param uint256 _value: 配布額\n\t\t* @return bool: 関数の実行成功フラグ\n\t\t*/\t\t\n\t\trequire(balances[msg.sender] > _value);\n\t\tuint256 amountToSend = _value;\n\t\tbalances[msg.sender] -= _value;\n\t\ttransfer(_to, amountToSend);\n\t\tbalances[_to] += _value;\n\t\tusersAddresses.push(_to);\n\t\treturn true;\n\t}\n\n\tfunction burn(uint256 _burnAmount) public onlyOwner returns (bool) {\n\t\t/**\n\t\t* @title burn\n\t\t* @notice 任意の額のオーナーの持つトークン量のバーン\n\t\t* @param uint256 _burnAmount: バーンする額\n\t\t* @return bool: 関数の実行成功フラグ\n\t\t*/\t\t\n\t\t_burn(msg.sender, _burnAmount);\n\t\treturn true;\n\t}\n\n\tfunction burnTargetUserAmount(address _target, uint256 _value) public onlyOwner returns (bool) {\n\t\t/**\n\t\t* @title burnTargetUserAmount\n\t\t* @notice 任意の額のユーザーの持つトークン量のバーン\n\t\t* @param address _target: バーンする対象のユーザー\n\t\t* @param uint256 _burnAmount: バーンする額\n\t\t* @return bool: 関数の実行成功フラグ\n\t\t*/\t\n\t\trequire(balances[_target] > _value);\n\t\t_burn(_target, _value);\n\t\tbalances[_target] -= _value;\n\t\treturn true;\n\t}\n\n\tfunction sendTokenToOwner(uint256 _value) public returns (bool) {\n\t\t/**\n\t\t* @title sendTokenToOwner\n\t\t* @notice ユーザーからオーナーにトークンを送金\n\t\t* @param uint256 _value: 送金するトークン額\n\t\t* @return bool: 関数の実行成功フラグ \n\t\t*/\n\t\trequire(balances[msg.sender] > _value);\n\t\tuint256 amountToSend = _value;\n\t\tbalances[msg.sender] -= _value;\n\t\ttransfer(owner_, amountToSend);\n\t\tbalances[owner_] += _value;\n\t\treturn true;\n\t}\n\n\tfunction sendTokenAndMessage(address _to, uint256 _value, string memory _calldata) public returns (bool) {\n\t\t/**\n\t\t* @title sendTokenAndMessage\n\t\t* @notice ユーザーAがメッセージとともに任意の額をユーザーBに送金/送信する\n\t\t* @param address _to: ユーザーBのアドレス\n\t\t* @param uint256 _value: 送金するトークン額\n\t\t* @param string memory _calldata: メッセージ\n\t\t* @return bool: 関数の実行成功フラグ\n\t\t*/\n\t\trequire(balances[msg.sender] > _value);\n\t\tuint256 amountToSend = _value;\n\t\tbalances[msg.sender] -= _value;\n\t\ttransfer(_to, amountToSend);\n\t\tbalances[_to] += _value;\n\t\tsentMessage[msg.sender] = _calldata;\n\t\treceivedMessage[_to] = _calldata;\n\t\treturn true;\n\t}\n\n\tfunction fetchReceivedMessage(address _to) public view returns (string memory) {\n\t\t/**\n\t\t* @title fetchReceivedMessage\n\t\t* @notice sendTokenAndMessageでトークンとメッセージを送金/送信された\n\t\t*         ユーザーBのアカウントアドレスを引数としてメッセージを取得\n\t\t* @param address _to: ユーザーBのアドレス\n\t\t* @return string memory: ユーザーAにより送信されたメッセージ\n\t\t*/\n\t\treturn receivedMessage[_to];\n\t}\n\n\tfunction fetchSentMessage(address _from) public view returns (string memory) {\n\t\t/**\n\t\t* @title sendTokenAndMessage\n\t\t* @notice sendTokenAndMessageでトークンとメッセージを送金/送信された\n\t\t*         ユーザーBのアカウントアドレスを引数としてメッセージを取得\t\t\n\t\t* @param address _from: ユーザーAのアドレス\n\t\t* @return string memory: ユーザーAにより送信されたメッセージ\n\t\t*/\n\t\treturn sentMessage[_from];\t\n\t}\n}",
  "sourcePath": "/Users/shunmanabe/Desktop/code_pallet/dapps/erc_token/Numa_token/contracts/NumaToken.sol",
  "compiler": {
    "name": "solc",
    "version": "0.5.0+commit.1d4f565a.Emscripten.clang"
  },
  "schemaVersion": "3.0.2",
  "updatedAt": "2019-03-19T01:55:00.090Z",
  "devdoc": {
    "author": "shunMB",
    "details": "IERC20をインターフェースに持つERC20をベースとしたNumaトークンの実装TODO: リファクタリング",
    "methods": {
      "allowance(address,address)": {
        "details": "Function to check the amount of tokens that an owner allowed to a spender.",
        "params": {
          "owner": "address The address which owns the funds.",
          "spender": "address The address which will spend the funds."
        },
        "return": "A uint256 specifying the amount of tokens still available for the spender."
      },
      "approve(address,uint256)": {
        "details": "Approve the passed address to spend the specified amount of tokens on behalf of msg.sender. Beware that changing an allowance with this method brings the risk that someone may use both the old and the new allowance by unfortunate transaction ordering. One possible solution to mitigate this race condition is to first reduce the spender's allowance to 0 and set the desired value afterwards: https://github.com/ethereum/EIPs/issues/20#issuecomment-263524729",
        "params": {
          "spender": "The address which will spend the funds.",
          "value": "The amount of tokens to be spent."
        }
      },
      "balanceOf(address)": {
        "params": {
          "owner": "The address to query the balance of."
        },
        "return": "An uint256 representing the amount owned by the passed address."
      },
      "decimals()": {
        "return": "the number of decimals of the token."
      },
      "decreaseAllowance(address,uint256)": {
        "details": "Decrease the amount of tokens that an owner allowed to a spender. approve should be called when allowed_[_spender] == 0. To decrement allowed value is better to use this function to avoid 2 calls (and wait until the first transaction is mined) From MonolithDAO Token.sol Emits an Approval event.",
        "params": {
          "spender": "The address which will spend the funds.",
          "subtractedValue": "The amount of tokens to decrease the allowance by."
        }
      },
      "increaseAllowance(address,uint256)": {
        "details": "Increase the amount of tokens that an owner allowed to a spender. approve should be called when allowed_[_spender] == 0. To increment allowed value is better to use this function to avoid 2 calls (and wait until the first transaction is mined) From MonolithDAO Token.sol Emits an Approval event.",
        "params": {
          "addedValue": "The amount of tokens to increase the allowance by.",
          "spender": "The address which will spend the funds."
        }
      },
      "isOwner()": {
        "return": "true if `msg.sender` is the owner of the contract."
      },
      "name()": {
        "return": "the name of the token."
      },
      "owner()": {
        "return": "the address of the owner."
      },
      "renounceOwnership()": {
        "details": "Allows the current owner to relinquish control of the contract."
      },
      "symbol()": {
        "return": "the symbol of the token."
      },
      "totalSupply()": {
        "details": "Total number of tokens in existence"
      },
      "transfer(address,uint256)": {
        "details": "Transfer token for a specified address",
        "params": {
          "to": "The address to transfer to.",
          "value": "The amount to be transferred."
        }
      },
      "transferFrom(address,address,uint256)": {
        "details": "Transfer tokens from one address to another. Note that while this function emits an Approval event, this is not required as per the specification, and other compliant implementations may not emit the event.",
        "params": {
          "from": "address The address which you want to send tokens from",
          "to": "address The address which you want to transfer to",
          "value": "uint256 the amount of tokens to be transferred"
        }
      },
      "transferOwnership(address)": {
        "details": "Allows the current owner to transfer control of the contract to a newOwner.",
        "params": {
          "newOwner": "The address to transfer ownership to."
        }
      }
    },
    "title": "Numa token"
  },
  "userdoc": {
    "methods": {
      "renounceOwnership()": {
        "notice": "Renouncing to ownership will leave the contract without an owner. It will not be possible to call the functions with the `onlyOwner` modifier anymore."
      }
    },
    "notice": "オーナーによるエアドロップ、バーン、指定したユーザーのバーン、ユーザー間の送金&メッセージ送信処理"
  }
}